:020000040040BA
:1000000008274020D5134000D1134000D1134000F1
:10001000D1134000D1134000D11340000000000074
:10002000000000000000000000000000D1134000AC
:10003000D113400000000000D1134000D113400054
:10004000D1134000D11340005D16400089184000D4
:10005000D1134000D1134000D1134000D113400010
:10006000D113400000000000F91140000D124000C3
:1000700021124000D1134000D1134000D1134000A1
:100080003512400049124000D1134000D113400006
:10009000D1134000D1134000D1134000D1134000D0
:1000A00035164000D1134000D1134000D113400059
:1000B000D1134000D1134000D1134000D1134000B0
:1000C000D1134000D1134000D1134000D1134000A0
:1000D00000000000D113400000000000D1134000D8
:1000E000D1134000D1134000D1134000D113400080
:1000F000D1134000D1134000D1134000D113400070
:10010000D1134000D1134000D1134000D11340005F
:10011000D1134000000000000000000000000000BB
:10012000D1134000D1134000D1134000D11340003F
:10013000D113400000000000D1134000D113400053
:1001400010B5054C237833B9044B13B10448AFF311
:1001500000800123237010BD4C04402000000000EB
:10016000EC2B40000C4B43B10C480D4910B5AFF3DC
:1001700000800C48036823B910BD0A48036833B9EE
:100180007047094B002BF7D0BDE810401847064BCD
:10019000002BF5D0184700BF00000000EC2B4000FA
:1001A00050044020EC2B40000000000021B94368BF
:1001B00023F0010343607047436843F00103436049
:1001C0007047016270470000F0B4446814F0010FFA
:1001D00005D00C2903D90C394FF4800700E0002723
:1001E0001C4CA4FB0356F60806EB8605A3EB45035F
:1001F00043EA0613A4FB0265ED0843EA053305EB69
:100200008505A2EB450543EA05233B43A4FB0142D8
:10021000D20843EA025302EB8202A1EB420143EA15
:100220000141836913F0040FFBD0036843F001031D
:100230000360836913F0010FFBD00123C361816068
:10024000036823F001030360C06A00F00100F0BC02
:10025000704700BFCDCCCCCCF0B5059C069D079F68
:100260000E46B1B1416811F0010F05D00C2A03D937
:100270000C3A4FF4800600E000261949A1FB02E188
:10028000C90801EB810EA2EB4E02120442EA0152B0
:1002900016435BB1124BA3FB0423DB0803EB830281
:1002A000A4EB4204240244EA0334264355B10C4B28
:1002B000A3FB0723DB0803EB8302A7EB420747EA14
:1002C00003131E430269074B134003610661026971
:1002D000054B13430361C06A00F00400F0BD00BF8A
:1002E000CDCCCCCC7F7F7FFF8080800070B42A4D46
:1002F000A5FB0346F608039C640544EA067406EB76
:100300008606A3EB460344EA0363A5FB0264E40804
:1003100043EA045304EB8404A2EB440243EA02429E
:100320001E4BA3FB01439B0942EA03121C4BA3FB98
:1003300001435B09A5FB0364E40804EB8404A3EB1D
:1003400044031A43A5FB0143DB0803EB8304A1EB41
:10035000440142EA0122A5FB0315ED0805EB8505E2
:10036000A3EB450542EA0532836913F0040FFBD085
:10037000036843F002030360836913F0010FFBD0AD
:100380000123C361C260036823F002030360C06AF3
:1003900000F0020070BC7047CDCCCCCCD34D6210C5
:1003A0001F85EB5130B4029D0C4651B1124CA4FB99
:1003B0000214E40804EB8401A2EB4102120442EAB5
:1003C00004545BB10C4AA2FB0532D20802EB820353
:1003D000A5EB43031B0643EA02731C434269074B28
:1003E0001340436144614269054B13434361C06A52
:1003F00000F0080030BC7047CDCCCCCCFFFF7F7F35
:100400000000808080697047C1617047034B1B68A2
:1004100043F48023194301600020704768044020A2
:1004200041B9094A136823F08073136002681343CB
:1004300003607047044A136843F0807313600268D6
:1004400013430360704700BF680440200268034BF9
:100450001B68194311430160704700BF68044020C6
:10046000036823EA0101024B1B68194301607047CE
:1004700068044020826883689A4203D08268836857
:100480009342FBD118467047C068704770B5064666
:100490000D46046804F480344FF4803109480A4B57
:1004A00098472DB94FF0FF33736024B9002070BD19
:1004B000013D7560F9E74FF480310248034B9847DE
:1004C000F4E700BF30180E40610440004D044000C6
:1004D00008B5074B984203D0064B984204D008BD9C
:1004E0001520054B984708BD2A20034B9847F6E78F
:1004F00000800040008005407D134000436823F4E5
:10050000702343604368090401F47021194341607A
:10051000704730B443F69924056915F0020F03D1F2
:10052000013CF9D101200CE0446814F0020F06D020
:10053000120402F4702211430BB141F08071C160CA
:10054000002030BC704732B900EB8100036B23F010
:1005500001030363704700EB8100036B43F0010369
:100560000363704732B900EB8100036B23F0020391
:100570000363704700EB8100036B43F002030363E6
:100580007047042A03D06AB1082A16D0704700EBDE
:100590008100036B23F008030363036B43F0040340
:1005A0000363704700EB8100036B23F008030363D0
:1005B000036B23F004030363704700EB8100036BBC
:1005C00043F008030363E1E700EB81010B6B23F0C9
:1005D000F0030B630B6B1A430A637047431E194405
:1005E000B1FBF0F0431EFE2B94BF00B24FF0FF3082
:1005F00070477AB110B4144600EB81010B6B23F401
:100600007F430B630A6B42EA04220A6300205DF811
:10061000044B70474FF0FF30704710B48901431806
:10062000022444504FF0FF319962196A5A605DF814
:10063000044B7047890105234350704700EB81113B
:10064000CA61704700EB81114A62704700EB81116B
:10065000086A7047F0B486B002240194082402941A
:1006600020240394802404940A9CE40B0594B0EBAA
:10067000510F14D84C0CA04217D2012501AF57F8E6
:100680002540B1FBF4F4260C84420AD386420DD9EE
:100690000135052DF3D1002006B0F0BC70470020D5
:1006A000FAE70020F8E70120F6E700252AB106A9BD
:1006B00001EB850151F8141C1160002BF3D01D6073
:1006C0000120E9E7014B1860704700BF6C0440202F
:1006D000024B1B6803EBC010425470476C0440206F
:1006E000024B1B6803EBC010405C70476C04402059
:1006F0002DE9F0478418802C02DDC0F18004E2B2BD
:1007000022B3CD08A1EBC501012606FA01F1CEB254
:10071000012B1DD0002B35D0022B17D10138C7B2C9
:10072000D419E4B2DFF890A04FF00009DFF88C8014
:1007300021462846D04786EA00024B46D2B22146DF
:100740002846C047013CE4B2BC42F1D1BDE8F08785
:100750000138C7B2D419E4B2DFF85CA04FF0000949
:10076000DFF8588021462846D04746EA00024B462B
:10077000D2B221462846C047013CE4B2BC42F1D186
:10078000BDE8F0870138C7B2D419E4B2DFF8288099
:10079000CE43DFF8289021462846C04706EA0002EB
:1007A0000023D2B221462846C847013CE4B2BC42ED
:1007B000F1D1BDE8F08700BFAD0B4000A90A4000B1
:1007C000002A48D02DE9F04714461F4606464A1E27
:1007D0002244D2B2914231D01F2A28BF1F2215468F
:1007E000CC084FEAD20801F00702FF2303FA02F215
:1007F000D2B205F00705C5F1070543FA05F5EDB2DC
:10080000444520D03B4601462046DFF84C90C8477F
:100810000134A0450AD94FF0FF0A3B465246314603
:100820002046C8470134E4B2A045F6D83B462A46E4
:1008300031464046084CA047BDE8F0871A46074BB2
:100840009847BDE8F0873B462A4001462046024CC7
:10085000A047BDE8F0877047B90B4000490B400046
:100860002DE9F8439DF820708BB11C469046064652
:100870004D1EEDB22C44E4B2DFF818903B464246E0
:1008800021463046C847013CE4B2AC42F6D1BDE84F
:10089000F88300BFF10640002DE9F04F85B0814696
:1008A000009101939DF838B07AB116465500C5F114
:1008B000030501274FF000080BF003030293DFF854
:1008C000F0A00BF00C0303934DE01A46374B98470A
:1008D00005B0BDE8F08F009B191B09EB0600019BDA
:1008E0003A46C9B2C0B2D047721C0099891B09EBC5
:1008F0000400019BD2B2C9B2C0B2D04738E0009B1D
:10090000191BA9EB0600019B3A46C9B2C0B2D047F9
:10091000721C0099891BA9EB0400019BD2B2C9B2D9
:10092000C0B2D04727E0A9EB0600019B3A460099E8
:10093000C0B2D047721CA9EB0400019BD2B200994F
:10094000C0B2D0471AE0002D2BDBA41B0A3505EB03
:10095000840425B2013EF6B208F101087B1CDBB22B
:10096000BE42B5D31F465FFA88F4029B002BB2D17A
:10097000039B002BC3D11BF0300FD4D11BF0C00F51
:10098000E1D009EB0600019B3A460099C0B2D0477E
:10099000721C09EB0400019BD2B20099C0B2D0478F
:1009A000D1E7063505EB84052DB2D5E7490B4000AC
:1009B000C10740002DE9F04F83B0044688469146B8
:1009C0009B465B7A9BF808200021009149464046EF
:1009D000214DA8479BF8003013B103B0BDE8F08F5C
:1009E0009BF80820D30812F0070F18BF01339BF8BB
:1009F00009A09BF80A70E71B17FB0AF717FB03F720
:100A0000DBF8043013FA87F71FE06400E4B2013525
:100A1000EBB29E4210D9EBB208EB0300C0B213F068
:100A2000070F08BF17F8014B14F0800FEDD001221B
:100A300049460A4B9847E8E709F101095FFA89F945
:100A40000AF1FF3A1AF0FF0AC7D09BF80860002E9F
:100A5000F2D000252C46DEE761084000490B40003B
:100A60002DE9F843044690461D4689460D4F0E4633
:100A700008E06A7A013242445FFA82F8B14614F81B
:100A8000013F6BB120780A28F3D00D28F7D02B4610
:100A900042464946B8472B7A99445FFA89F9EEE70E
:100AA000BDE8F883B509400070B504460D4616460A
:100AB0001BB90D4B9847B04215D032462946204607
:100AC0000A4B984704F00F0040F0B000084CA047D4
:100AD000C5F3021040F01000A04705F00F00A0473A
:100AE0003046044B984770BDE1064000D1064000F7
:100AF000FD0B40001D0E40002DE9F0410D480E4B4E
:100B000098470E4B984740200D4B984700254FF0D3
:100B100001082F460B4E002443463A46E1B22846D0
:100B2000B0470134802CF7D10135EDB2042DF2D15C
:100B3000BDE8F08170044020C50640003D0C400037
:100B4000FD0B4000A90A4000C3092AD11F2928D85B
:100B50002DE9F04114460546CE08A1EBC60101225D
:100B600002FA01F75FFA87F8014630460D4B9847C5
:100B70000246012C09D064B1022C0ED00023294674
:100B80003046094CA047BDE8F08148EA0002D2B2E5
:100B9000F4E720EA0702D2B2F0E788EA0002D2B214
:100BA000ECE77047E1064000A90A400008B5014B98
:100BB000984708BDE1064000F8B505460E461746C1
:100BC0001C460C4B98470246012C08D054B1022C0D
:100BD0000CD0002331462846074CA047F8BD3A43C5
:100BE000D2B2F6E720EA0702D2B2F2E77A40D2B2F6
:100BF000EFE700BFE1064000A90A400038B505460E
:100C00000822094B5A63094C01212046084B98479A
:100C100001231A4629462046064CA0474FF4FD7092
:100C2000054B984738BD00BF00100E4000800040C3
:100C3000FD04400013054000010040202DE9F84369
:100C4000664D4FF400362E61C5F8A060644B08274E
:100C50001F61C3F8A0706E66C5F890606E656E6225
:100C6000C5F880602A6F22F400322A676A6F22F486
:100C700000326A675F66C3F890705F655F62C3F8B1
:100C800080701A6F22F008021A675A6F22F0080269
:100C90005A671F602E601F632E63DFF87C8100237C
:100CA0004FF480024FF0805140464E4CA047002345
:100CB0004FF400124FF080514046A04700234FF000
:100CC00000724FF080514046A04700234FF480024D
:100CD0004FF080514046A04700234FF400124FF0E0
:100CE00080514046A04700234FF000724FF08051E2
:100CF0004046A0473C4C4FF00209C4F800904FF02A
:100D00008008C4F80080636843F0010363603A46DA
:100D100001212046354B9847002201212046344BC3
:100D20009847002201212046324B9847636823F000
:100D3000020363600022012120462F4B984763681D
:100D400023F080036360636843F0100363602B4902
:100D50002B482C4B9847C2B2012120462A4B98477A
:100D600020462A4B9847012323606E6340F6B83033
:100D7000274CA0472E6340F6B830A0472E63A8202A
:100D8000244CA0471F20A047D320A0470020A04705
:100D90004020A047A120A047C820A047DA20A047B4
:100DA0004846A0478120A0478F20A047A420A04705
:100DB000A620A047D520A0474046A0478D20A047A9
:100DC0001420A047DB20A0474020A047D920A047FF
:100DD000F120A047AF20A047BDE8F88300120E40E5
:100DE00000100E40051140000080004083054000C7
:100DF0004705400065054000C905400080D1F00866
:100E000040420F00DD054000F3054000D1044000E2
:100E100001004020FD0B400000140E4038B505468F
:100E20000822094B1A63094C01212046084B9847B8
:100E300001231A4629462046064CA0474FF4FD7070
:100E4000054B984738BD00BF00100E4000800040A1
:100E5000FD044000130540000100402010B510487B
:100E6000104B98473E2100200F4B98470F4CA0474E
:100E70000028FCD00E4B98470E4A0F4B9A620F4C3D
:100E8000A0470028FCD002200D4B984700200D4BB6
:100E900098470D4B98470248024B984710BD00BF3A
:100EA00000A3E111A9154000F91240004D134000C4
:100EB0005D134000013F182000060E406D134000F6
:100EC0005D124000951240009D144000F8B54FF4AB
:100ED0000042484B5A60BFF34F8FBFF36F8F464BB2
:100EE0000022C3F850225A6942F400325A61BFF31B
:100EF0004F8FBFF36F8FD3F88070C7F34E3607F074
:100F000007000430C7F3C907B7FA87FE0EF01F0EBB
:100F1000BFF34F8F4FF0FF3404FA00FC06FA00F0E5
:100F200004FA0EF407FA0EFE1D463A46734640EAEE
:100F30000301C5F86012013A2344B2F1FF3FF6D134
:100F4000013E6044B6F1FF3FEFD1BFF34F8F2A4B14
:100F50005A6942F480325A61BFF34F8FBFF36F8FEB
:100F6000264A27495160A1F580715160BFF34F8F28
:100F7000BFF36F8FD3F8902222F00102C3F89022C2
:100F8000D3F8942222F00102C3F89422BFF34F8FCA
:100F9000BFF36F8F0A201B4CA0470B20A0470C20EB
:100FA000A0471020A0471120A047174B4FF4807294
:100FB0001A61C3F8A0201A63A3F580634FF400629E
:100FC0005A61C3F8A0205A66C3F890205A651A6285
:100FD000C3F88420196F21F400611967596F21F457
:100FE00000615967C3F8C020C3F8D420C3F8B0200B
:100FF000F8BD00BF50180E4000ED00E0000C0E40A0
:101000000C08005A7D13400000120E400163704727
:10101000416370474264B1F1C05F3AD013D8B1F177
:10102000006F25D0B1F1805F0AD1036F13430367CE
:10103000436F416F0B4023EA0203436742607047EE
:101040000029FBD17047B1F1205F21D009D8B1F15F
:10105000005FF3D1036F13430367436F1343436789
:10106000ECE7B1F1405F13D0B1F1605F10D0E5E77C
:1010700010B4016F046FD34321401C46194001672F
:10108000436F416F0B402340436742605DF8044B60
:101090007047036F016F0B4023EA02030367436F3E
:1010A00013434367CAE7416412F0010F0DD1016693
:1010B00012F00A0F0BD0016212F0020F09D112F0E8
:1010C000080F08D0C0F8841005E04166F0E74162DF
:1010D000F2E7C0F8801041610160704710B4019CD4
:1010E00041644CB901664BB101654AB94163016184
:1010F00001605DF8044B70474166F4E74165F4E731
:101100000163F4E770B582B0054616461C46B1F19E
:10111000005F14D00AD9B1F1405F24D0B1F1605F13
:1011200021D0B1F1205F17D000201AE0B1F1805F2B
:1011300005D0B1F1C05F02D0B1F1006FF4D13246F9
:101140002846114B984714F0010F02D12E6601205A
:1011500007E06E66012004E01A4631460B4B9847C3
:10116000012002B070BD04F001030093C4F38003BA
:10117000B1F1605F14BF0022012231462846044CC1
:10118000A0470120EDE700BF15104000A710400068
:10119000DD104000836B0B4214BF0120002070471C
:1011A000C06C7047806C70472DE9F041044688465A
:1011B0000E4B9847054620460D4B9847054013D0E7
:1011C0000C4C04F1600603E0B4420DD010345DB164
:1011D00020684045F8D161682942F5D0E368984716
:1011E000636825EA0305EFE7BDE8F081A11140003F
:1011F000A51140007006402008B50A210148024BA5
:10120000984708BD000E0E40A911400008B50B21FB
:101210000148024B984708BD00100E40A91140003C
:1012200008B50C210148024B984708BD00120E403A
:10123000A911400008B510210148024B984708BD8C
:1012400000140E40A911400008B511210148024BBD
:10125000984708BD00160E40A9114000032811D080
:10126000042812D002280CBF4FF480710021084AD4
:10127000136B23F440730B431363936E13F0080F47
:10128000FBD070474FF44071F1E74FF40071EEE787
:1012900000060E40174A136B23F0700318431063C7
:1012A000936E13F0080F0AD14FF4805311498A6EE0
:1012B00012F0080F03D1013BF9D1012070470D4A0C
:1012C000136B23F0030343F002031363936E13F0D5
:1012D000080F0AD14FF4805306498A6E12F0080FA6
:1012E00005D1013BF9D10120704700207047002053
:1012F000704700BF00060E40A0B90E48036A0902FD
:1013000089B20D4A1A400D4B13431943016202463C
:10131000936E13F0010FFBD0064A116A084B0B4382
:101320001362704703490B6A064A1A40064B13437F
:101330000B62704700060E40FCFFC8FF010037003B
:1013400000003701FCFFC8FE02003701024B986E17
:1013500000F48030704700BF00060E404FF000528E
:10136000014B9A62704700BF00060E40024B986E18
:1013700000F00200704700BF00060E403F281ED854
:101380001F280CD8114B9A6901238340934318D02E
:10139000012303FA00F00D4B18610020704720383C
:1013A0000A4BD3F808210123834093430BD0012338
:1013B00003FA00F0054BC3F800010020704701203C
:1013C0007047002070470020704700BF00060E40A5
:1013D000FEE7000000B583B0254B264A9A4210D0A4
:1013E000254B234A9A420CD2013B9B1A23F003035C
:1013F000043313441F4951F8040B42F8040B9A427A
:10140000F9D11E4B1E4A9A420AD2013B9B1A23F085
:10141000030304331344002142F8041B9342FBD11D
:10142000184A194B23F07F039360EFF31083B3FA4C
:1014300083F35B09019372B6BFF35F8F0022134BF6
:101440001A700199124A136843F470031360BFF3D2
:101450004F8FBFF36F8F29B101220C4B1A70BFF36E
:101460005F8F62B60B4B98470B4B9847FEE700BF68
:1014700000004020EC2B40004C0440200807402096
:101480004C04402000ED00E0000040001800402027
:1014900088ED00E0E11F4000FD1A40003B4B1B6B54
:1014A00003F00303012B1DD083B1022B36D0374B41
:1014B0001B6B03F07003702B5FD0344B1A6B3449F5
:1014C000C2F302120B68D3400B607047314B5B696B
:1014D00013F0800F14BF4FF400424FF4FA422C4B2C
:1014E0001A60E4E7294B1B6A13F0807F03D02A4A75
:1014F000274B1A60DBE7294A254B1A60234B1B6AEE
:1015000003F07003102B05D0202BD0D1224A204BA2
:101510001A60CCE7224A1E4B1A60C8E71B4B1B6AB5
:1015200013F0807F16D01C4A194B1A60174B1B6BA7
:1015300003F00303022BBAD1144A916A926A144849
:10154000C1F30A41036801FB0333D2B2B3FBF2F3E8
:101550000360ACE7114A0E4B1A600C4B1B6A03F098
:101560007003102B05D0202BE0D10B4A084B1A60DA
:10157000DCE70B4A064B1A60D8E7054A13680949AD
:10158000A1FB03135B081360704700BF00060E4009
:101590001C00402010180E40001BB70000093D0041
:1015A00000127A00ABAAAAAA164B984213D9164B7E
:1015B000984215D9154B984216D9154B984217D910
:1015C000144B984218D9144B984294BF134A144AAA
:1015D000144B1A6070474FF08062124B1A607047CC
:1015E000114A104B1A607047104A0E4B1A60704730
:1015F0000F4A0C4B1A6070474FF00422094B1A60D7
:10160000704700BFBFF35E017FE7BD023FDB1C04F4
:10161000FFCE7B05BFC2DA067FB63908000500049D
:1016200000060004000C0E4000010004000200044B
:101630000003000400B583B001210548054B98471D
:101640000190019B0122044B1A7003B05DF804FB6A
:1016500000C000404D064000E206402038B5134867
:10166000134B9847044610F0040F11D114F0020FE9
:1016700013D10E4D012128460E4CA04708212846C3
:10168000A04710212846A04720212846A04738BD62
:1016900004210648074B9847E8E702210348054B19
:1016A00098470122044B1A70E3E700BF60180E4010
:1016B0000504400009044000E10640202DE9F04700
:1016C000B0F1000833DD0F46CD171A4BA1FB030123
:1016D00003FB051141F22C72002341F22B7400250B
:1016E00000196941144CA04782460024134EDFF8CC
:1016F0005890134D0BE03320A8474FF480713046CB
:10170000104B98473320A8470134A0450FD04FF421
:1017100080713046C847002FEDD05046A8474FF49F
:1017200080713046074B98475046A847ECE7BDE824
:10173000F08700BF00A3E111D11C400000120E4051
:10174000010040200D104000111040002DE9F0472D
:10175000B0F1000830DD0F46CD17184BA1FB030197
:1017600003FB051141F22C72002341F22B7400257A
:1017700000196941124CA04782460024114EDFF83F
:101780005090114D0AE03320A847012130460F4BFD
:1017900098473320A8470134A0450DD00121304699
:1017A000C847002FEFD05046A84701213046074BCD
:1017B00098475046A847EEE7BDE8F08700A3E1113F
:1017C000D11C4000000E0E40010040200D104000D2
:1017D000111040002DE9F047B0F1000830DD0F4650
:1017E000CD17184BA1FB030103FB051141F22C722D
:1017F000002341F22B74002500196941124CA047C7
:1018000082460024114EDFF85090114D0AE033203B
:10181000A847042130460F4B98473320A84701348E
:10182000A0450DD004213046C847002FEFD05046C8
:10183000A84704213046074B98475046A847EEE793
:10184000BDE8F08700A3E111D11C400000100E405C
:10185000010040200D1040001110400038B5044632
:101860000D46064B984720B929462046044B984719
:1018700038BD29462046034B984738BD9511400096
:101880000D1040001110400008B50848084B98475B
:1018900010F0010F00D108BD4FF080410548064B04
:1018A00098470122054B1A70F5E700BF30180E402B
:1018B0008904400000120E405D184000E006402000
:1018C0002DE9F04182B006460C20144FB847DFF8EE
:1018D0005C8000240094234632464FF480714046D9
:1018E0000F4DA8470A20B8470094234632460121ED
:1018F0000C48A8470C20B8470094234632464FF0C6
:1019000080414046A8470B20B84700942346324602
:1019100004210548A84702B0BDE8F0817D134000CE
:10192000DD104000000E0E4000100E4000120E4070
:101930002DE9F04385B006460C4617469846084602
:10194000184B9847184D009502AB03AA294640460C
:10195000DFF86C90C847029A42F48042394630461C
:10196000124B9847039AB5FBF2F2B2FBF8F23946F4
:1019700030460F4B984763B25B0904F01F04012205
:1019800002FA04F40B4A42F823401022394630464A
:10199000094B984739463046084B984705B0BDE893
:1019A000F08300BF7D13400000A3E1111B0640003F
:1019B0003D06400000E100E04506400035064000DD
:1019C000550640002DE9F04385B006460C46174603
:1019D00098460846184B9847184D009502AB03AA45
:1019E00029464046DFF86C90C847029A42F480428C
:1019F00039463046124B9847039AB5FBF2F2B2FBD8
:101A0000F8F2394630460F4B984763B25B0904F051
:101A10001F04012202FA04F40B4A42F82340102268
:101A200039463046094B984739463046084B984767
:101A300005B0BDE8F08300BF7D13400000A3E111B5
:101A40001B0640003D06400000E100E04506400066
:101A5000350640005506400082B070B582B005469C
:101A60000C4606A981E80C0002201D4B9847002176
:101A700028461C4B9847099B0093089B079A069998
:101A80002846194EB0470C9B0B9A0A992846174EC8
:101A9000B04762B2E4B204F01F0101238B40560943
:101AA000134800EB8601C1F88030C1F88031002A6C
:101AB0000FDB0F491144002281F8002340F8263043
:101AC0000D9928460B4B984702B0BDE8704002B014
:101AD000704704F00F04084A00211155EEE700BFDB
:101AE0007D134000AD014000ED024000C9014000FF
:101AF00000E100E0C301400014ED00E02DE9F041F9
:101B00008EB0544B9847544B98474FF40042534B78
:101B10005A600020524B9847524B9847FF2300933E
:101B200001231022114614204F4CA0474F4B102286
:101B300032214F484F4CA0474F4C0423012218211B
:101B400020464E4DA84705230222182120464C4C22
:101B5000A04707AC4B4D0FCD0FC495E8070084E8B4
:101B60000700494E022705976C4609AD0FCD0FC4FB
:101B70002B68236007AB0CCB39463046434CA0475B
:101B8000132300930123032219463046404CA047FB
:101B900015230293012401942D23009323460F2241
:101BA000214630463B4DA8473B4B1C703B4EDFF86F
:101BB0001C813B4C05E00A2101203A4B9847002349
:101BC00033703378002BF6D198F80030002B30D1E9
:101BD000354B1B78002B34D12F4B1B78002BF0D0CA
:101BE00000212046314B98474FF400512046304B9E
:101BF000984720462F4B984705462E4F2046B8471A
:101C00008542FBD005F1080120462B4B98472B4B12
:101C10000822C3F88020C3F88021002583F80353ED
:101C20001A604FF480312046254B98471A4B1D709F
:101C3000C7E70A210120234B9847002388F800308A
:101C4000BFE7C8210520204B98470022164B1A7089
:101C5000B7E700BFCD0E40005D0E400050180E40AB
:101C6000C1184000F90A4000990840000C004020CB
:101C7000B42B4000610A400000C000403119400010
:101C8000C5194000982B400060180E40591A4000BA
:101C9000A503400059024000E0064020E206402033
:101CA00030180E404D174000E1064020210440004E
:101CB0000D044000750440008D04400000E100E088
:101CC0004D044000BD164000D5174000E3064020FB
:101CD00053B94AB9002908BF00281CBF4FF0FF3193
:101CE0004FF0FF3000F07AB9ADF1080C6DE904CE89
:101CF00000F006F8DDF804E0DDE9022304B07047E7
:101D00002DE9F0478C460D460446089E002B51D124
:101D10008A4217466DD9B2FA82FEBEF1000F0BD08F
:101D2000CEF1200C01FA0EF520FA0CFC02FA0EF7A7
:101D30004CEA050C00FA0EF44FEA174A250CBCFBDE
:101D4000FAF81FFA87F90AFB18CC45EA0C4508FB9C
:101D500009F3AB420AD9ED1908F1FF3280F0238173
:101D6000AB4240F22081A8F102083D44ED1AA4B232
:101D7000B5FBFAF00AFB105544EA054400FB09F9EB
:101D8000A14509D9E41900F1FF3380F00A81A1458A
:101D900040F2078102383C44A4EB090440EA0840C1
:101DA0000021002E61D024FA0EF400233460736009
:101DB000BDE8F0878B4207D9002E54D0002186E879
:101DC00021000846BDE8F087B3FA83F1002940F00E
:101DD0008E80AB4202D3824200F2FA80841A65EB15
:101DE00003050120AC46002E3FD086E81010BDE868
:101DF000F08712B90127B7FBF2F7B7FA87FEBEF1F9
:101E0000000F34D1EB1B3A0C1FFA87FC0121B3FB06
:101E1000F2F8250C02FB183345EA03450CFB08F3E6
:101E2000AB4207D9ED1908F1FF3002D2AB4200F204
:101E3000D1808046ED1AA3B2B5FBF2F002FB10553B
:101E400043EA05440CFB00FCA44507D9E41900F162
:101E5000FF3302D2A44500F2B8801846A4EB0C046C
:101E600040EA08409DE731463046BDE8F087CEF1B4
:101E7000200405FA0EF307FA0EF720FA04F83A0CDC
:101E800025FA04F448EA0308B4FBF2F14FEA1845D6
:101E900002FB11441FFA87FC45EA044501FB0CF3E1
:101EA000AB4200FA0EF409D9ED1901F1FF3080F0D0
:101EB0008A80AB4240F2878002393D44EB1A1FFA18
:101EC00088F5B3FBF2F002FB103345EA034500FB53
:101ED0000CF3AB4207D9ED1900F1FF386FD2AB42DA
:101EE0006DD902383D44EB1A40EA01418FE7C1F158
:101EF000200722FA07F88B4005FA01F448EA0303A9
:101F000020FA07FE4FEA134CFD404EEA040EB5FBE3
:101F1000FCF94FEA1E440CFB19551FFA83F844EAFA
:101F2000054509FB08F4AC4202FA01F200FA01FA95
:101F300008D9ED1809F1FF3043D2AC4241D9A9F1DB
:101F400002091D442D1B1FFA8EFEB5FBFCF00CFB95
:101F500010554EEA054400FB08F8A04507D9E418DF
:101F600000F1FF3529D2A04527D902381C4440EAA8
:101F70000940A4EB0804A0FB02894C45C6464D4627
:101F800015D312D056B1BAEB0E0364EB050404FA74
:101F900007F7CB401F43CC40376074600021BDE899
:101FA000F0871846F8E69046E0E6C245EAD2B8EB7C
:101FB000020E69EB03050138E4E72846D7E74046FF
:101FC00091E78146BEE7014678E702383C4445E7A1
:101FD000084608E7A8F102083D442BE7704700BF18
:101FE00070B50F4E0F4D761BB61018BF002405D0EC
:101FF000013455F8043B9847A642F9D10A4E0B4DDF
:10200000761B00F0DDFDB61018BF002406D00134A9
:1020100055F8043B9847A642F9D170BD70BD00BF8A
:10202000CC2B4000CC2B4000D42B4000CC2B4000CC
:10203000024B13B1024800F005B8704700000000E1
:1020400051204000002301461A46184600F01EB8F1
:1020500038B50A4C0A4D641BA4100AD004F1804321
:10206000013B05EB8305013C55F804399847002CEA
:10207000F9D1BDE8384000F0ADBD00BFE42B400011
:10208000E02B4000704700BF704700BF2DE9F843C8
:102090002C4D0646286898460F469146FFF7F2FFFA
:1020A000294B1C68D4F84831002B3ED05A681F2AAF
:1020B0001CDC02F1010E76B103EB82010124C1F8B0
:1020C0008890D3F8880194402043022EC3F88801F9
:1020D000C1F8088123D00232C3F804E0286843F82D
:1020E0002270FFF7D1FF0020BDE8F883174B0BB338
:1020F0004FF4C870AFF300800346D8B1D4F848213C
:102100000260002141600A46C4F848014FF0010E08
:10211000C0F88811C0F88C11002EDCD0CCE7D3F8C1
:102120008C110C43C3F88C41D5E704F5A673C4F8B1
:102130004831BBE72868FFF7A7FF4FF0FF30BDE845
:10214000F88300BF48044020BC2B40000000000082
:10215000000000000000000000000000000000007F
:10216000000000000000000000000000000000006F
:10217000300030003000300030003000000030000F
:102180003000000000000000000000006C006C0047
:102190006C006C0000000000000000000000000067
:1021A00000000000000000000000280028007C0063
:1021B000280028007C002800280000000000000003
:1021C0000000000010003C0040002000100008004B
:1021D0000400780010000000000000000000000073
:1021E00000007C00A400A8005000280054009400C7
:1021F0008800000000000000000000006000900067
:10220000900090006000940088008800700000003A
:10221000000000000000000010001000100000008E
:1022200000000000000000000000000000000000AE
:102230000000000008001000200020002000200006
:102240002000200010000800000000000000000036
:10225000200010000800080008000800080008001E
:1022600010002000000000000000280010007C008A
:102270001000280000000000000000000000000026
:10228000000000000000000000000000100010002E
:102290001000FE0010001000100000000000000000
:1022A000000000000000000000000000000000002E
:1022B00000000000100030002000000000000000BE
:1022C000000000000000000000007C000000000092
:1022D00000000000000000000000000000000000FE
:1022E000000000000000000000003000300000008E
:1022F00000000000000000000000080008001000BE
:1023000010002000200040004000000000000000FD
:10231000000000000000780084008C009400A400FD
:10232000C4008400780000000000000000000000ED
:1023300000001000300050001000100010001000CD
:102340007C000000000000000000000000007000A1
:10235000880008001000200040008000F800000005
:10236000000000000000000000007000880008006D
:102370003000080008008800700000000000000025
:102380000000000000000800180028004800880035
:10239000FC00080008000000000000000000000031
:1023A0000000780080008000F000080008000800AD
:1023B000F0000000000000000000000000003000FD
:1023C00040008000F0008800880088007000000055
:1023D00000000000000000000000F80008001000ED
:1023E000100020002000400040000000000000001D
:1023F0000000000000007000880088007000880065
:10240000880088007000000000000000000000004C
:102410000000700088008800880078000800100024
:10242000600000000000000000000000000000004C
:1024300000003000300000000000300030000000DC
:10244000000000000000000000000000000030005C
:10245000300000000000300030006000400000004C
:1024600000000000000000000800100020004000F4
:102470002000100008000000000000000000000024
:1024800000000000000000007C0000007C00000054
:10249000000000000000000000000000000000003C
:1024A0004000200010000800100020004000000044
:1024B000000000000000000000003000480008009C
:1024C00010002000000000002000000000000000BC
:1024D00000000000000000003C0042009A00AA003A
:1024E000AA00BE008000780000000000000000008C
:1024F000000010002800280044007C004400440034
:102500004400000000000000000000000000F8008F
:1025100084008400F800840084008400F800000037
:10252000000000000000000000003C0040008000AF
:1025300080008000800040003C000000000000009F
:10254000000000000000F000880084008400840087
:1025500084008800F000000000000000000000007F
:102560000000F80080008000F00080008000800003
:10257000F800000000000000000000000000F8006B
:1025800080008000F8008000800080008000000053
:10259000000000000000000000003C00400080003F
:1025A00080009C008400440038000000000000000F
:1025B000000000000000880088008800F800880003
:1025C0008800880088000000000000000000000073
:1025D0000000F80020002000200020002000200043
:1025E000F800000000000000000000000000F800FB
:1025F000080008000800080008000800F0000000BB
:10260000000000000000000000008400880090002E
:10261000A000D000880084008400000000000000BA
:10262000000000000000800080008000800080002A
:1026300080008000FC00000000000000000000009E
:1026400000008400CC00CC00B400B40084008400FE
:102650008400000000000000000000000000840072
:10266000C400C400A400A400940094008C000000E6
:1026700000000000000000000000780084008400DA
:1026800084008400840084007800000000000000C2
:10269000000000000000F800840084008400F800BE
:1026A00080008000800000000000000000000000AA
:1026B000000078008400840084008400840084008A
:1026C0007800200018000000000000000000F80062
:1026D000840084008400F8008800840084000000E6
:1026E000000000000000000000007C00800080006E
:1026F0006000180004000400F80000000000000062
:10270000000000000000F800200020002000200051
:102710002000200020000000000000000000000059
:10272000000084008400840084008400840084000D
:10273000780000000000000000000000000084009D
:102740008400840048004800480030003000000049
:10275000000000000000000000008800A800A800A1
:10276000A800A800A80050005000000000000000D1
:1027700000000000000088008800500020002000B9
:1027800050008800880000000000000000000000E9
:1027900000008800880088005000500020002000C1
:1027A0002000000000000000000000000000FC000D
:1027B000040008001000200040008000FC00000021
:1027C00000000000000000007000400040004000D9
:1027D0004000400040004000400040007000000009
:1027E00000000000400040002000200020001000F9
:1027F00010001000080008000000000000000000A9
:102800003800080008000800080008000800080058
:102810000800080038000000000000001000280038
:102820004400000000000000000000000000000064
:102830000000000000000000000000000000000098
:102840000000000000000000380000000000000050
:102850000000000000002000100000000000000048
:102860000000000000000000000000000000000068
:1028700000000000000070000800080078008800D8
:102880007C000000000000000000000080008000CC
:102890008000F8008400840084008400F8000000B8
:1028A00000000000000000000000000000007800B0
:1028B00080008000800080007800000000000000A0
:1028C000000000000400040004007C008400840078
:1028D00084008C0074000000000000000000000074
:1028E00000000000000078008400FC0080008000F0
:1028F0007C00000000000000000000001C00200020
:102900002000FC002000200020002000FC0000002F
:1029100000000000000000000000000000007C003B
:1029200084008400840084007C000400780000009F
:1029300000000000800080008000B800C400840017
:1029400084008400840000000000000000000000FB
:1029500000001000000070001000100010001000B7
:102960007C000000000000000000000000000800E3
:1029700000007800080008000800080008000800AF
:1029800008007000000000008000800080008800C7
:102990009000A000D0008800880000000000000027
:1029A00000000000E00020002000200020002000A7
:1029B00020002000F80000000000000000000000DF
:1029C000000000000000A400FC00A400A400A4007B
:1029D000A400000000000000000000000000000053
:1029E0000000B800C400840084008400840000005B
:1029F000000000000000000000000000000078005F
:102A0000840084008400840078000000000000003E
:102A100000000000000000000000B800C4008400B6
:102A200084008400F80080008000000000000000A6
:102A30000000000000007C0084008400840084000A
:102A40007C00040004000000000000000000000002
:102A50000000D8006000400040004000F00000008E
:102A600000000000000000000000000000007800EE
:102A70008000400030000800F0000000000000006E
:102A800000000000000000002000FC0020002000EA
:102A9000200020001C0000000000000000000000DA
:102AA000000000000000880088008800880088007E
:102AB0007C0000000000000000000000000000009A
:102AC00000008400840084004800480030000000BA
:102AD000000000000000000000000000000088006E
:102AE000A800A800A800A8005000000000000000F6
:102AF00000000000000000000000880050002000DE
:102B000020005000880000000000000000000000CD
:102B100000000000000084008400480048003000ED
:102B20001000200040000000000000000000000035
:102B30000000F8000800100020004000F80000002D
:102B40000000000000000000100020002000100025
:102B500020002000100020002000100000000000D5
:102B60000000000010001000100010000000000025
:102B70001000100010001000000000000000000015
:102B80002000100010002000100010002000100095
:102B90001000200000000000E20700000300000019
:102BA000130000000C0000000F0000002D000000CA
:102BB000010000006D756E646F0000002000402071
:102BC000F8B500BFF8BC08BC9E46704731204000F5
:102BD00065014000F8B500BFF8BC08BC9E467047D0
:042BE000410140006F
:082BE4001CF1FF7F010000005D
:102BEC00BFF35F8F0138FBD170470000000000007D
:102BFC00502140000A0E207D0100000000093D001C
:102C0C00000000000C03402074034020DC03402033
:102C1C0000000000000000000000000000000000A8
:102C2C000000000000000000000000000000000098
:102C3C000000000000000000000000000000000088
:102C4C000000000000000000000000000000000078
:102C5C000000000000000000000000000000000068
:102C6C000000000000000000000000000000000058
:102C7C000000000000000000000000000000000048
:102C8C000000000000000000000000000000000038
:102C9C000000000000000000000000000000000028
:102CAC000000000000000000010000000000000017
:102CBC000E33CDAB34126DE6ECDE05000B000000DC
:102CCC0000000000000000000000000000000000F8
:102CDC0000000000000000000000000000000000E8
:102CEC0000000000000000000000000000000000D8
:102CFC0000000000000000000000000000000000C8
:0C302C000000000000000000E40640204E
:04000005004013D5CF
:00000001FF
